:100000000C9434000C9446020C9446000C94460068
:100010000C9446000C9446000C9446000C94460048
:100020000C9446000C9446000C9446000C94460038
:100030000C9446000C9446000C9446000C94460028
:100040000C94F6010C9446000C9446000C94460067
:100050000C9446000C9446000C9446000C94460008
:100060000C9446000C94460011241FBECFEFD8E03C
:10007000DEBFCDBF21E0A0E0B1E001C01D92A831FC
:10008000B207E1F70E9403010C94E0040C94000015
:1000900080E480937C0087E880937A0008958770DD
:1000A000ECE7F0E09081907490839081892B8083BD
:1000B000808180628083EAE7F0E0808180648083D1
:1000C00080917A0084FFFCCFEAE7F0E080818061D4
:1000D0008083209178008091790090E0880F991FAB
:1000E000880F991F2295269526952370822B0895B7
:1000F00082E00E944F00909313018093120189398E
:1001000023E0920718F01092170106C08839934037
:1001100018F481E0809317018091170190E0089511
:1001200083E00E944F009093150180931401893958
:1001300023E0920718F01092160106C08839934008
:1001400018F481E0809316018091160190E00895E3
:1001500020E030E00FC095B180E2892785B94FEFEC
:1001600089E698E1415080409040E1F700C00000EE
:100170002F5F3F4F2A30310574F3089560E080E02F
:100180000E94740160E080E00E94A8012FEF89E6E0
:1001900098E1215080409040E1F700C0000064E603
:1001A00081E00E94A80164E681E00E9474012FEFC3
:1001B00081E19AE7215080409040E1F700C00000C3
:1001C00060E080E00E9474016AEF81E00E94A80173
:1001D0002FEF81E19AE7215080409040E1F700C085
:1001E000000060E080E00E94A8016AEF82E00E94C7
:1001F00074012FEF81E19AE7215080409040E1F7B0
:1002000000C0000008950E94DC010E94A8000E9426
:1002100066010E9448000E94B5020E94BE0285B19C
:10022000806285B90E94C9020E947800892B09F07A
:1002300041C00E949000892BE9F50E94D902609389
:10024000000170930101809302019093030160917A
:10025000000170910101809102019091030120E061
:1002600030E048E452E40E944C0418164CF46EEF5F
:1002700082E00E94A8016EEF82E00E947401CFCF5D
:100280006091000170910101809102019091030140
:1002900020E030E048E452E40E94F40288230CF0AD
:1002A000BECF60E080E00E94A80164E682E00E9488
:1002B0007401B5CF0E947800019729F00E94900048
:1002C000019709F0ACCF0E94BE00A9CFE0E8F0E0B2
:1002D0008081816080838081806A8083E1E8F0E0B2
:1002E0008081856080830895CF93811105C088B196
:1002F00018B888B118B80FC0823031F488B118B876
:1003000088B1806288B907C0813029F488B118B8F3
:1003100088B1806188B9CFB7F89470E080E090E050
:100320000E949C0320E030E04FE753E40E94F90272
:1003300020E030E04FE753E40E9451040E946B0339
:1003400070E070938B0060938A00CFBFCF910895C7
:10035000CF93811105C085B115B885B115B80FC00F
:10036000823031F485B115B885B1806185B907C097
:10037000813029F485B115B885B1886085B9CFB7CA
:10038000F89470E080E090E00E949C0320E030E070
:100390004FE753E40E94F90220E030E04FE753E4D6
:1003A0000E9451040E946B0370E070938900609377
:1003B0008800CFBFCF91089584B1816084B985B1A1
:1003C00015B88AB11AB88BB182608BB984B18260DA
:1003D00084B984B1846084B984B1886184B987B1F7
:1003E000806387B984B1806284B908951F920F92A7
:1003F0000FB60F9211242F938F939F93AF93BF93B8
:1004000080910D018823C1F180910801909109012B
:10041000A0910A01B0910B010196A11DB11D80931D
:10042000080190930901A0930A01B0930B018091F8
:10043000080190910901A0910A01B0910B01BA2F16
:10044000A92F982F882726B5820F911DA11DB11DB8
:1004500081309543AC40B10578F010920D011092B7
:100460000C018FEF9FEFDC0180930E0190930F0141
:10047000A0931001B0931101BF91AF919F918F9103
:100480002F910F900FBE0F901F9018951F920F92F3
:100490000FB60F9211242F933F934F935F936F9357
:1004A0007F938F939F93AF93BF93EF93FF9380912D
:1004B0000C018823B1F180910D0181110DC081E003
:1004C00080930D01109208011092090110920A0107
:1004D00010920B0116BC25C010920D0180910801ED
:1004E00090910901A0910A01B0910B01BA2FA92F97
:1004F000982F882726B5BC01CD01620F711D811D83
:10050000911D2AE330E040E050E00E94BE042093B9
:100510000E0130930F01409310015093110110927E
:100520000C01FF91EF91BF91AF919F918F917F91BE
:100530006F915F914F913F912F910F900FBE0F9050
:100540001F90189585B115B885E18A95F1F70000DF
:1005500085B1816085B981E080930C0185E38A953E
:10056000F1F7000085B115B80895E9E6F0E0808163
:10057000816080838DB381608DBB089585B5816076
:1005800085BD16BCEEE6F0E08081816080837894C2
:10059000089580910C018111FCCF2FEF8DEE92E038
:1005A000215080409040E1F700C000000E94A2026C
:1005B000089560910E0170910F018091100190914A
:1005C00011010E949C0360930401709305018093C4
:1005D00006019093070160910401709105018091DB
:1005E00006019091070108950E94D70308F481E065
:1005F00008950E940D030C9412040E940B0458F0FD
:100600000E94040440F029F45F3F29F00C94FB039E
:1006100051110C9446040C9401040E94230468F3C5
:100620009923B1F3552391F3951B550BBB27AA27AB
:1006300062177307840738F09F5F5F4F220F331FE5
:10064000441FAA1FA9F335D00E2E3AF0E0E832D0AD
:1006500091505040E695001CCAF72BD0FE2F29D0B0
:10066000660F771F881FBB1F261737074807AB0782
:10067000B0E809F0BB0B802DBF01FF2793585F4FF7
:100680003AF09E3F510578F00C94FB030C9446041D
:100690005F3FE4F3983ED4F3869577956795B795D9
:1006A000F7959F5FC9F7880F911D9695879597F9E4
:1006B0000895E1E0660F771F881FBB1F621773075D
:1006C0008407BA0720F0621B730B840BBA0BEE1F72
:1006D00088F7E09508950E942B0488F09F5798F0C2
:1006E000B92F9927B751B0F0E1F0660F771F881F37
:1006F000991F1AF0BA95C9F714C0B13091F00E9451
:100700004504B1E008950C944504672F782F88279D
:10071000B85F39F0B93FCCF3869577956795B39577
:10072000D9F73EF490958095709561957F4F8F4FE6
:100730009F4F0895E89409C097FB3EF490958095EB
:10074000709561957F4F8F4F9F4F9923A9F0F92F97
:1007500096E9BB279395F695879577956795B79515
:10076000F111F8CFFAF4BB0F11F460FF1BC06F5FFB
:100770007F4F8F4F9F4F16C0882311F096E911C00D
:10078000772321F09EE8872F762F05C0662371F02E
:1007900096E8862F70E060E02AF09A95660F771F42
:1007A000881FDAF7880F9695879597F90895990F1E
:1007B0000008550FAA0BE0E8FEEF16161706E8072B
:1007C000F907C0F012161306E407F50798F0621B4C
:1007D000730B840B950B39F40A2661F0232B242B21
:1007E000252B21F408950A2609F4A140A6958FEF40
:1007F000811D811D089597F99F6780E870E060E092
:1008000008959FEF80EC089500240A9416161706A9
:1008100018060906089500240A94121613061406F1
:1008200005060895092E0394000C11F4882352F054
:10083000BB0F40F4BF2B11F460FF04C06F5F7F4F0C
:100840008F4F9F4F089557FD9058440F551F59F0F3
:100850005F3F71F04795880F97FB991F61F09F3FAD
:1008600079F087950895121613061406551FF2CFD6
:100870004695F1DF08C0161617061806991FF1CF26
:1008800086957105610508940895E894BB2766274D
:100890007727CB0197F908950E94D70308F48FEFCB
:1008A00008950E9464040C9412040E94040438F019
:1008B0000E940B0420F0952311F00C94FB030C9480
:1008C000010411240C9446040E94230470F3959FA4
:1008D000C1F3950F50E0551F629FF001729FBB2737
:1008E000F00DB11D639FAA27F00DB11DAA1F649FD3
:1008F0006627B00DA11D661F829F2227B00DA11D86
:10090000621F739FB00DA11D621F839FA00D611D0B
:10091000221F749F3327A00D611D231F849F600D2C
:10092000211D822F762F6A2F11249F5750409AF055
:10093000F1F088234AF0EE0FFF1FBB1F661F771FE1
:10094000881F91505040A9F79E3F510580F00C94AC
:10095000FB030C9446045F3FE4F3983ED4F3869582
:1009600077956795B795F795E7959F5FC1F7FE2B4C
:10097000880F911D9695879597F90895A1E21A2EF3
:10098000AA1BBB1BFD010DC0AA1FBB1FEE1FFF1F33
:10099000A217B307E407F50720F0A21BB30BE40B83
:1009A000F50B661F771F881F991F1A9469F76095CA
:1009B0007095809590959B01AC01BD01CF01089584
:0409C000F894FFCFD9
:00000001FF
