S01400004B6161695F456C546974616E2E737265638A
S11300000C9434000C94B5020C9446000C944600F5
S11300100C9446000C9446000C9446000C94460044
S11300200C9446000C9446000C9446000C94460034
S11300300C9446000C9446000C9446000C94460024
S11300400C9465020C9446000C9446000C944600F3
S11300500C9446000C9446000C9446000C94460004
S11300600C9446000C94460011241FBECFEFD8E038
S1130070DEBFCDBF21E0A0E0B1E001C01D92A831F8
S1130080B207E1F70E94B7000C9494050C940000A9
S11300908AB11AB88AB11AB8089583E090E09093AF
S11300A009018093080184E090E090930701809314
S11300B0060185E090E0909305018093040186E0B9
S11300C090E0909303018093020180910801909144
S11300D00901892B91F08091060190910701892BE8
S11300E061F08091040190910501892B31F0809198
S11300F0020190910301892B29F4109201011092BD
S1130100000106C081E090E090930101809300011A
S113011080910001909101010895809108019091CE
S11301200901019719F481E090E008950895809100
S1130130020190910301019719F481E090E0089580
S1130140089520E030E00FC095B180E2892785B999
S11301504FEF89E698E1415080409040E1F700C0BC
S113016000002F5F3F4F2A30310574F308950E9439
S11301704B020E9448000E94A1000E944A030E9470
S113018053030E94D5010E945E030E946E032AE974
S113019039E949E95EE30E94E10418160CF09BC0BA
S11301A062E382E00E94E30160E080E00E941702C3
S11301B02FEF87EA91E6215080409040E1F700C09C
S11301C0000062E381E00E94E3012FEF87EA91E6F9
S11301D0215080409040E1F700C0000062E382E0DB
S11301E00E94170260E080E00E94E3012FEF87EA9B
S11301F091E6215080409040E1F700C0000060E0AB
S113020081E00E9417022FEF87EA91E62150804097
S11302109040E1F700C000005EC00E946E032DEC28
S11302203CEC4CE45DE30E94890388234CF46FEFBB
S113023082E00E94E3016FEF82E00E9417024BC04C
S11302400E946E032DEC3CEC4CEC5DE30E948903B0
S113025088234CF46BE982E00E94E3016BE982E0BD
S11302600E94170238C00E946E032AE939E949E165
S11302705EE30E94890388234CF464E682E00E94D2
S1130280E30164E682E00E94170225C00E946E0327
S113029029E23CE54FE85EE30E94E10418164CF4C1
S11302A060E080E00E94E30160E080E00E941702C9
S11302B012C00E946E0329E23CE54FE85EE30E940F
S11302C08903882344F462E382E00E94E30162E349
S11302D082E00E9417020E944D00019709F09DCF11
S11302E00E944D000197F1F40E9497000197D1F408
S11302F064E681E00E94E30164E681E00E94170263
S11303002FEF83ED90E3215080409040E1F700C04F
S1130310000060E080E00E94170264E681E00E9431
S1130320E301D9CF0E944D000197F1F40E948D00A2
S11303300197D1F464E681E00E94E30164E681E080
S11303400E9417022FEF83ED90E3215080409040EC
S1130350E1F700C0000060E080E00E94E30164E691
S113036081E00E941702B7CF0E944D000197D1F49B
S113037064E681E00E94E30164E681E00E941702E2
S11303802FEF83ED90E3215080409040E1F700C0CF
S1130390000060E080E00E94170264E681E00E94B1
S11303A0E30199CF80E090E00895E0E8F0E08081F7
S11303B0816080838081806A8083E1E8F0E08081CD
S11303C0856080830895CF93811105C088B118B8E2
S11303D088B118B80FC0813031F488B118B888B129
S11303E0806288B907C0823029F488B118B888B10E
S11303F0807188B9CFB7F89470E080E090E00E94F3
S11304002F0420E030E04FE753E40E948E0320E005
S113041030E04FE753E40E94E6040E94000470E0D9
S113042070938B0060938A00CFBFCF910895CF93D0
S1130430811105C085B115B885B115B80FC08130DB
S113044031F485B115B885B1886085B907C08230AB
S113045029F485B115B885B1806185B9CFB7F89411
S113046070E080E090E00E942F0420E030E04FE74D
S113047053E40E948E0320E030E04FE753E40E94EF
S1130480E6040E94000470E070938B0060938A007D
S1130490CFBFCF91089584B1816084B985B115B877
S11304A08AB11AB88BB182608BB984B1826084B985
S11304B084B1846084B984B1886184B987B180636C
S11304C087B984B1806284B908951F920F920FB6E0
S11304D00F9211242F938F939F93AF93BF93809187
S11304E013018823C1F180910E0190910F01A09115
S11304F01001B09111010196A11DB11D80930E014F
S113050090930F01A0931001B093110180910E01FB
S113051090910F01A0911001B0911101BA2FA92F50
S1130520982F882726B5820F911DA11DB11D8130FA
S11305309543AC40B10578F010921301109212016A
S11305408FEF9FEFDC018093140190931501A0932A
S11305501601B0931701BF91AF919F918F912F9185
S11305600F900FBE0F901F9018951F920F920FB609
S11305700F921124CF92DF92EF92FF922F933F9329
S11305804F935F936F937F938F939F93AF93BF9397
S1130590EF93FF9380911201882309F453C0809153
S11305A0130181110DC081E08093130110920E019B
S11305B010920F01109210011092110116BC42C04A
S11305C01092130180910E0190910F01A0911001DE
S11305D0B0911101BA2FA92F982F882726B5BC01F5
S11305E0CD01620F711D811D911D0F2EFAE3CF2ED7
S11305F0D12CE12CF12CF02DA70196010E9453057A
S11306002093140130931501409316015093170160
S11306106091140170911501809116019091170158
S1130620A70196010E947505CA01B9010E9431040F
S113063060930A0170930B0180930C0190930D0158
S113064010921201FF91EF91BF91AF919F918F9101
S11306507F916F915F914F913F912F91FF90EF9018
S1130660DF90CF900F900FBE0F901F90189585B11B
S113067015B885E18A95F1F7000085B1816085B9E7
S113068081E08093120185E38A95F1F7000085B13A
S113069015B80895E9E6F0E08081816080838DB328
S11306A081608DBB089585B5816085BD16BCEEE67D
S11306B0F0E08081816080837894089580911201B4
S11306C08111FCCF2FEF80E792E0215080409040D1
S11306D0E1F700C000000E943703F0CF60911401DD
S11306E07091150180911601909117010E943104B7
S11306F060930A0170930B0180930C0190930D0198
S113070060910A0170910B0180910C0190910D018F
S113071008950E946C0408F481E008950E94A203E5
S11307200C94A7040E94A00458F00E94990440F07D
S113073029F45F3F29F00C94900451110C94DB04CC
S11307400C9496040E94B80468F39923B1F35523DA
S113075091F3951B550BBB27AA27621773078407D0
S113076038F09F5F5F4F220F331F441FAA1FA9F366
S113077035D00E2E3AF0E0E832D091505040E69554
S1130780001CCAF72BD0FE2F29D0660F771F881FB5
S1130790BB1F261737074807AB07B0E809F0BB0BA8
S11307A0802DBF01FF2793585F4F3AF09E3F5105BC
S11307B078F00C9490040C94DB045F3FE4F3983ECF
S11307C0D4F3869577956795B795F7959F5FC9F7A5
S11307D0880F911D9695879597F90895E1E0660F26
S11307E0771F881FBB1F621773078407BA0720F09F
S11307F0621B730B840BBA0BEE1F88F7E095089508
S11308000E94C00488F09F5798F0B92F9927B751D8
S1130810B0F0E1F0660F771F881F991F1AF0BA95A0
S1130820C9F714C0B13091F00E94DA04B1E0089520
S11308300C94DA04672F782F8827B85F39F0B93F12
S1130840CCF3869577956795B395D9F73EF4909553
S11308508095709561957F4F8F4F9F4F0895E894D1
S113086009C097FB3EF490958095709561957F4FF4
S11308708F4F9F4F9923A9F0F92F96E9BB279395A2
S1130880F695879577956795B795F111F8CFFAF4B2
S1130890BB0F11F460FF1BC06F5F7F4F8F4F9F4FE3
S11308A016C0882311F096E911C0772321F09EE841
S11308B0872F762F05C0662371F096E8862F70E0A7
S11308C060E02AF09A95660F771F881FDAF7880F81
S11308D09695879597F90895990F0008550FAA0BD7
S11308E0E0E8FEEF16161706E807F907C0F012163F
S11308F01306E407F50798F0621B730B840B950B42
S113090039F40A2661F0232B242B252B21F4089596
S11309100A2609F4A140A6958FEF811D811D089533
S113092097F99F6780E870E060E008959FEF80EC9E
S1130930089500240A941616170618060906089541
S113094000240A9412161306140605060895092EA7
S11309500394000C11F4882352F0BB0F40F4BF2B16
S113096011F460FF04C06F5F7F4F8F4F9F4F089556
S113097057FD9058440F551F59F05F3F71F047954C
S1130980880F97FB991F61F09F3F79F08795089531
S1130990121613061406551FF2CF4695F1DF08C050
S11309A0161617061806991FF1CF8695710561056D
S11309B008940895E894BB2766277727CB0197F915
S11309C008950E946C0408F48FEF08950E94F904BE
S11309D00C94A7040E94990438F00E94A00420F00B
S11309E0952311F00C9490040C94960411240C9407
S11309F0DB040E94B80470F3959FC1F3950F50E097
S1130A00551F629FF001729FBB27F00DB11D639FBC
S1130A10AA27F00DB11DAA1F649F6627B00DA11D62
S1130A20661F829F2227B00DA11D621F739FB00D08
S1130A30A11D621F839FA00D611D221F749F332778
S1130A40A00D611D231F849F600D211D822F762F11
S1130A506A2F11249F5750409AF0F1F088234AF0EE
S1130A60EE0FFF1FBB1F661F771F881F915050405A
S1130A70A9F79E3F510580F00C9490040C94DB047C
S1130A805F3FE4F3983ED4F3869577956795B795E1
S1130A90F795E7959F5FC1F7FE2B880F911D9695FB
S1130AA0879597F90895A1E21A2EAA1BBB1BFD0195
S1130AB00DC0AA1FBB1FEE1FFF1FA217B307E40739
S1130AC0F50720F0A21BB30BE40BF50B661F771F91
S1130AD0881F991F1A9469F7609570958095909571
S1130AE09B01AC01BD01CF010895052E97FB1EF4B7
S1130AF000940E948C0557FD07D00E94530507FC03
S1130B0003D04EF40C948C05509540953095219566
S1130B103F4F4F4F5F4F0895909580957095619525
S10F0B207F4F8F4F9F4F0895F894FFCF34
S9030000FC
