:100000000C9434000C94F0010C9446000C944600BF
:100010000C9446000C9446000C9446000C94460048
:100020000C9446000C9446000C9446000C94460038
:100030000C9446000C9446000C9446000C94460028
:100040000C94A0010C9446000C9446000C944600BD
:100050000C9446000C9446000C9446000C94460008
:100060000C9446000C94460011241FBECFEFD8E03C
:10007000DEBFCDBF21E0A0E0B1E001C01D92A831FC
:10008000B207E1F70E94BE000C948A040C940000B1
:1000900080E480937C0087E880937A0008958770DD
:1000A000ECE7F0E09081907490839081892B8083BD
:1000B000808180628083EAE7F0E0808180648083D1
:1000C00080917A0084FFFCCFEAE7F0E080818061D4
:1000D0008083209178008091790090E0880F991FAB
:1000E000880F991F2295269526952370822B0895B7
:1000F00082E00E944F00909313018093120189398E
:1001000023E0920718F01092170106C08839934037
:1001100018F481E0809317018091170190E0089511
:1001200083E00E944F009093150180931401893958
:1001300023E0920718F01092160106C08839934008
:1001400018F481E0809316018091160190E00895E3
:1001500020E030E00FC095B180E2892785B94FEFEC
:1001600089E698E1415080409040E1F700C00000EE
:100170002F5F3F4F2A30310574F308950E948601A6
:100180000E94A8000E9410010E9448000E945F0285
:100190000E94680285B1806285B90E9473020E9444
:1001A0007800892BA1F50E949000892B81F50E948F
:1001B00083026B017C0160930001709301018093C5
:1001C0000201909303012AE939E949E95EE30E94BB
:1001D000F60318164CF46EEF82E00E9452016EEFA7
:1001E00082E00E941E01D6CF2AE939E949E95EE39F
:1001F000C701B6010E949E02882364F660E080E099
:100200000E94520160E080E00E941E01C3CF62E3C1
:1002100081E00E941E0162E381E00E945201BACF98
:10022000E0E8F0E08081816080838081806A808363
:10023000E1E8F0E08081856080830895CF938111AB
:1002400005C088B118B888B118B80FC0823031F431
:1002500088B118B888B1806288B907C0813029F4A4
:1002600088B118B888B1806188B9CFB7F89470E0C8
:1002700080E090E00E94460320E030E04FE753E446
:100280000E94A30220E030E04FE753E40E94FB030A
:100290000E94150370E070938B0060938A00CFBFBB
:1002A000CF910895CF93811105C085B115B885B15F
:1002B00015B80FC0823031F485B115B885B18061B1
:1002C00085B907C0813029F485B115B885B188603A
:1002D00085B9CFB7F89470E080E090E00E944603C3
:1002E00020E030E04FE753E40E94A30220E030E03A
:1002F0004FE753E40E94FB030E94150370E07093E4
:10030000890060938800CFBFCF91089584B1816048
:1003100084B985B115B88AB11AB88BB182608BB92E
:1003200084B1826084B984B1846084B984B1886105
:1003300084B987B1806387B984B1806284B9089534
:100340001F920F920FB60F9211242F938F939F93AA
:10035000AF93BF9380910D018823C1F18091080173
:1003600090910901A0910A01B0910B010196A11D84
:10037000B11D8093080190930901A0930A01B093E5
:100380000B018091080190910901A0910A01B0919F
:100390000B01BA2FA92F982F882726B5820F911D00
:1003A000A11DB11D81309543AC40B10578F010928C
:1003B0000D0110920C018FEF9FEFDC0180930E0175
:1003C00090930F01A0931001B0931101BF91AF91D1
:1003D0009F918F912F910F900FBE0F901F901895A6
:1003E0001F920F920FB60F9211242F933F934F93AA
:1003F0005F936F937F938F939F93AF93BF93EF938D
:10040000FF9380910C018823B1F180910D0181113E
:100410000DC081E080930D01109208011092090136
:1004200010920A0110920B0116BC25C010920D010A
:100430008091080190910901A0910A01B0910B01EE
:10044000BA2FA92F982F882726B5BC01CD01620F9E
:10045000711D811D911D2AE330E040E050E00E94B3
:10046000680420930E0130930F01409310015093C4
:10047000110110920C01FF91EF91BF91AF919F91EB
:100480008F917F916F915F914F913F912F910F903D
:100490000FBE0F901F90189585B115B885E18A950C
:1004A000F1F7000085B1816085B981E080930C018E
:1004B00085E38A95F1F7000085B115B80895E9E65E
:1004C000F0E08081816080838DB381608DBB089571
:1004D00085B5816085BD16BCEEE6F0E08081816067
:1004E00080837894089580910C018111FCCF2FEFC7
:1004F0008DEE92E0215080409040E1F700C0000076
:100500000E944C02089560910E0170910F0180913C
:100510001001909111010E944603609304017093B1
:100520000501809306019093070160910401709189
:100530000501809106019091070108950E948103B1
:1005400008F481E008950E94B7020C94BC030E9455
:10055000B50358F00E94AE0340F029F45F3F29F044
:100560000C94A50351110C94F0030C94AB030E945E
:10057000CD0368F39923B1F3552391F3951B550BE4
:10058000BB27AA2762177307840738F09F5F5F4F66
:10059000220F331F441FAA1FA9F335D00E2E3AF0A5
:1005A000E0E832D091505040E695001CCAF72BD0BD
:1005B000FE2F29D0660F771F881FBB1F261737070E
:1005C0004807AB07B0E809F0BB0B802DBF01FF2740
:1005D00093585F4F3AF09E3F510578F00C94A50375
:1005E0000C94F0035F3FE4F3983ED4F3869577953F
:1005F0006795B795F7959F5FC9F7880F911D9695F9
:10060000879597F90895E1E0660F771F881FBB1F54
:10061000621773078407BA0720F0621B730B840B01
:10062000BA0BEE1F88F7E09508950E94D50388F075
:100630009F5798F0B92F9927B751B0F0E1F0660FA6
:10064000771F881F991F1AF0BA95C9F714C0B130E7
:1006500091F00E94EF03B1E008950C94EF03672F2F
:10066000782F8827B85F39F0B93FCCF38695779516
:100670006795B395D9F73EF49095809570956195FF
:100680007F4F8F4F9F4F0895E89409C097FB3EF42A
:1006900090958095709561957F4F8F4F9F4F9923CF
:1006A000A9F0F92F96E9BB279395F695879577954D
:1006B0006795B795F111F8CFFAF4BB0F11F460FF0D
:1006C0001BC06F5F7F4F8F4F9F4F16C0882311F065
:1006D00096E911C0772321F09EE8872F762F05C079
:1006E000662371F096E8862F70E060E02AF09A9514
:1006F000660F771F881FDAF7880F9695879597F909
:100700000895990F0008550FAA0BE0E8FEEF1616A2
:100710001706E807F907C0F012161306E407F507F5
:1007200098F0621B730B840B950B39F40A2661F069
:10073000232B242B252B21F408950A2609F4A1400C
:10074000A6958FEF811D811D089597F99F6780E819
:1007500070E060E008959FEF80EC089500240A9413
:100760001616170618060906089500240A9412168C
:100770001306140605060895092E0394000C11F4BF
:10078000882352F0BB0F40F4BF2B11F460FF04C06C
:100790006F5F7F4F8F4F9F4F089557FD9058440FC5
:1007A000551F59F05F3F71F04795880F97FB991FD0
:1007B00061F09F3F79F0879508951216130614068D
:1007C000551FF2CF4695F1DF08C01616170618061A
:1007D000991FF1CF86957105610508940895E894F5
:1007E000BB2766277727CB0197F908950E948103DD
:1007F00008F48FEF08950E940E040C94BC030E942D
:10080000AE0338F00E94B50320F0952311F00C944C
:10081000A5030C94AB0311240C94F0030E94CD03A8
:1008200070F3959FC1F3950F50E0551F629FF00143
:10083000729FBB27F00DB11D639FAA27F00DB11D5C
:10084000AA1F649F6627B00DA11D661F829F2227E5
:10085000B00DA11D621F739FB00DA11D621F839F6C
:10086000A00D611D221F749F3327A00D611D231F42
:10087000849F600D211D822F762F6A2F11249F5790
:1008800050409AF0F1F088234AF0EE0FFF1FBB1F93
:10089000661F771F881F91505040A9F79E3F510552
:1008A00080F00C94A5030C94F0035F3FE4F3983EB2
:1008B000D4F3869577956795B795F795E7959F5FFC
:1008C000C1F7FE2B880F911D9695879597F908958E
:1008D000A1E21A2EAA1BBB1BFD010DC0AA1FBB1F44
:1008E000EE1FFF1FA217B307E407F50720F0A21BB6
:1008F000B30BE40BF50B661F771F881F991F1A9423
:1009000069F760957095809590959B01AC01BD014C
:08091000CF010895F894FFCF18
:00000001FF
