S01400004B6161695F456C546974616E2E737265638A
S11300000C9434000C94C6010C9446000C944600E5
S11300100C9446000C9446000C9446000C94460044
S11300200C9446000C9446000C9446000C94460034
S11300300C9446000C9446000C9446000C94460024
S11300400C9476010C9446000C9446000C944600E3
S11300500C9446000C9446000C9446000C94460004
S11300600C9446000C94460011241FBECFEFD8E038
S1130070DEBFCDBF21E0A0E0B1E001C01D92A431FC
S1130080B207E1F70E94C2000C9425040C9400000E
S113009080E480937C0087E880937A0008958770D9
S11300A0ECE7F0E09081907490839081892B8083B9
S11300B0808180628083EAE7F0E0808180648083CD
S11300C080917A0084FFFCCFEAE7F0E080818061D0
S11300D08083209178008091790090E0880F991FA7
S11300E0880F991F2295269526952370822B0895B3
S11300F082E00E944F0090930F0180930E01893992
S113010023E0920718F01092130106C08839934037
S113011018F481E0809313018091130190E0089515
S113012083E00E944F00909311018093100189395C
S113013023E0920718F01092120106C08839934008
S113014018F481E0809312018091120190E00895E7
S113015020E030E00FC095B180E2892785B94FEFE8
S113016089E698E1415080409040E1F700C00000EA
S11301702F5F3F4F2430310574F3089585B18062B9
S113018085B908950E945C010E94A8000E94E600BF
S11301900E9448000E94BE000E947800019721F04E
S11301A00E949000019749F462E382E00E94F40007
S11301B062E382E00E942801EDCF62E381E00E94C5
S11301C0F40062E381E00E942801E4CFE0E8F0E07B
S11301D08081816080838081806A8083E1E8F0E0AF
S11301E08081856080830895CF93811105C088B193
S11301F018B888B118B80FC0823031F488B118B873
S113020088B1806288B907C0813029F488B118B8F0
S113021088B1806188B9CFB7F89470E080E090E04D
S11302200E94EB0220E030E04FE753E40E944802D2
S113023020E030E04FE753E40E9477030E94BA02C3
S113024070E070938B0060938A00CFBFCF910895C4
S1130250CF93811105C085B115B885B115B80FC00C
S1130260823031F485B115B885B1806185B907C094
S1130270813029F485B115B885B1886085B9CFB7C7
S1130280F89470E080E090E00E94EB0220E030E01F
S11302904FE753E40E94480220E030E04FE753E484
S11302A00E9477030E94BA0270E070938900609301
S11302B08800CFBFCF91089584B1816084B985B19E
S11302C015B88AB11AB88BB182608BB984B18260D7
S11302D084B984B1846084B984B1886184B987B1F4
S11302E0806387B984B1806284B908951F920F92A4
S11302F00FB60F9211242F938F939F93AF93BF93B5
S1130300809109018823C1F1809104019091050134
S1130310A0910601B09107010196A11DB11D809322
S1130320040190930501A0930601B0930701809105
S1130330040190910501A0910601B0910701BA2F23
S1130340A92F982F882726B5820F911DA11DB11DB5
S113035081309543AC40B10578F0109209011092B8
S113036008018FEF9FEFDC0180930A0190930B014A
S1130370A0930C01B0930D01BF91AF919F918F9108
S11303802F910F900FBE0F901F9018951F920F92F0
S11303900FB60F921124CF92DF92EF92FF922F9318
S11303A03F934F935F936F937F938F939F93AF93F9
S11303B0BF93EF93FF9380910801882309F453C0FE
S11303C08091090181110DC081E08093090110928F
S11303D0040110920501109206011092070116BC47
S11303E042C0109209018091040190910501A091ED
S11303F00601B0910701BA2FA92F982F882726B597
S1130400BC01CD01620F711D811D911D0F2EFAE3F8
S1130410CF2ED12CE12CF12CF02DA70196010E94B6
S1130420E40320930A0130930B0140930C01509391
S11304300D0160910A0170910B0180910C01909162
S11304400D01A70196010E940604CA01B9010E9488
S1130450EB02609300017093010180930201909379
S1130460030110920801FF91EF91BF91AF919F9109
S11304708F917F916F915F914F913F912F91FF9059
S1130480EF90DF90CF900F900FBE0F901F901895B4
S11304900E945C020C943D030E94360358F00E94B3
S11304A02F0340F029F45F3F29F00C9426035111E7
S11304B00C9471030C942C030E944E0368F399234B
S11304C0B1F3552391F3951B550BBB27AA2762174C
S11304D07307840738F09F5F5F4F220F331F441F59
S11304E0AA1FA9F335D00E2E3AF0E0E832D091508D
S11304F05040E695001CCAF72BD0FE2F29D0660F7A
S1130500771F881FBB1F261737074807AB07B0E8BC
S113051009F0BB0B802DBF01FF2793585F4F3AF0C2
S11305209E3F510578F00C9426030C9471035F3FB1
S1130530E4F3983ED4F3869577956795B795F79548
S11305409F5FC9F7880F911D9695879597F9089530
S1130550E1E0660F771F881FBB1F621773078407CC
S1130560BA0720F0621B730B840BBA0BEE1F88F7DB
S1130570E09508950E94560388F09F5798F0B92F8C
S11305809927B751B0F0E1F0660F771F881F991FC4
S11305901AF0BA95C9F714C0B13091F00E947003F3
S11305A0B1E008950C947003672F782F8827B85F03
S11305B039F0B93FCCF3869577956795B395D9F71C
S11305C03EF490958095709561957F4F8F4F9F4F26
S11305D00895E89409C097FB3EF490958095709532
S11305E061957F4F8F4F9F4F9923A9F0F92F96E97B
S11305F0BB279395F695879577956795B795F111F0
S1130600F8CFFAF4BB0F11F460FF1BC06F5F7F4F8C
S11306108F4F9F4F16C0882311F096E911C077239E
S113062021F09EE8872F762F05C0662371F096E8A7
S1130630862F70E060E02AF09A95660F771F881F76
S1130640DAF7880F9695879597F9089597F99F6734
S113065080E870E060E008959FEF80EC0895002446
S11306600A941616170618060906089500240A9413
S113067012161306140605060895092E0394000C99
S113068011F4882352F0BB0F40F4BF2B11F460FF28
S113069004C06F5F7F4F8F4F9F4F089557FD905851
S11306A0440F551F59F05F3F71F04795880F97FB32
S11306B0991F61F09F3F79F08795089512161306EC
S11306C01406551FF2CF4695F1DF08C0161617061B
S11306D01806991FF1CF8695710561050894089550
S11306E0E894BB2766277727CB0197F908950E94E2
S11306F08A030C943D030E942F0338F00E943603B2
S113070020F0952311F00C9426030C942C0311244F
S11307100C9471030E944E0370F3959FC1F3950FDF
S113072050E0551F629FF001729FBB27F00DB11D71
S1130730639FAA27F00DB11DAA1F649F6627B00D01
S1130740A11D661F829F2227B00DA11D621F739FEA
S1130750B00DA11D621F839FA00D611D221F749FF8
S11307603327A00D611D231F849F600D211D822F3F
S1130770762F6A2F11249F5750409AF0F1F0882366
S11307804AF0EE0FFF1FBB1F661F771F881F915093
S11307905040A9F79E3F510580F00C9426030C9419
S11307A071035F3FE4F3983ED4F38695779567959C
S11307B0B795F795E7959F5FC1F7FE2B880F911DBD
S11307C09695879597F90895A1E21A2EAA1BBB1B4B
S11307D0FD010DC0AA1FBB1FEE1FFF1FA217B30709
S11307E0E407F50720F0A21BB30BE40BF50B661F1F
S11307F0771F881F991F1A9469F7609570958095E3
S113080090959B01AC01BD01CF010895052E97FB86
S11308101EF400940E941D0457FD07D00E94E403B7
S113082007FC03D04EF40C941D045095409530956C
S113083021953F4F4F4F5F4F089590958095709548
S111084061957F4F8F4F9F4F0895F894FFCF1F
S9030000FC
