:100000000C9434000C9473010C9446000C9446003C
:100010000C9446000C9446000C9446000C94460048
:100020000C9446000C9446000C9446000C94460038
:100030000C9446000C9446000C9446000C94460028
:100040000C9423010C9446000C9446000C9446003A
:100050000C9446000C9446000C9446000C94460008
:100060000C9446000C94460011241FBECFEFD8E03C
:10007000DEBFCDBF21E0A0E0B1E001C01D92AE30F7
:10008000B207E1F70E945E000C944D040C9400004E
:1000900020E030E00FC095B180E2892785B94FEFAD
:1000A00089E698E1415080409040E1F700C00000AF
:1000B0002F5F3F4F2430310574F308950E940901EA
:1000C0000E9448000E94930060E080E00E94D500FA
:1000D00060E080E00E94A1000E9408020E941102DC
:1000E0000E941C020E942C022DEC3CEC4CEC5DE3C7
:1000F0000E947603882364F085B1806285B96AEF37
:1001000082E00E94D5006AEF82E00E94A100E8CF61
:1001100085B115B860E080E00E94D50060E080E025
:100120000E94A100DDCFE0E8F0E080818160808363
:100130008081806A8083E1E8F0E08081856080834F
:100140000895CF93811105C088B118B888B118B847
:100150000FC0823031F488B118B888B1806288B994
:1001600007C0813029F488B118B888B1806188B996
:10017000CFB7F89470E080E090E00E94EA0220E0BF
:1001800030E04FE753E40E94470220E030E04FE7C1
:1001900053E40E947B030E94B90270E070938B00CD
:1001A00060938A00CFBFCF910895CF93811105C08E
:1001B00085B115B885B115B80FC0823031F485B15D
:1001C00015B885B1806185B907C0813029F485B142
:1001D00015B885B1886085B9CFB7F89470E080E034
:1001E00090E00E94EA0220E030E04FE753E40E94F2
:1001F000470220E030E04FE753E40E947B030E9477
:10020000B90270E07093890060938800CFBFCF91EE
:10021000089584B1816084B985B115B88AB11AB8DE
:100220008BB182608BB984B1826084B984B18460FF
:1002300084B984B1886184B987B1806387B984B196
:10024000806284B908951F920F920FB60F92112405
:100250002F938F939F93AF93BF938091090188232E
:10026000C1F18091040190910501A0910601B09126
:1002700007010196A11DB11D809304019093050112
:10028000A0930601B09307018091040190910501AC
:10029000A0910601B0910701BA2FA92F982F8827A6
:1002A00026B5820F911DA11DB11D81309543AC4033
:1002B000B10578F010920901109208018FEF9FEFBD
:1002C000DC0180930A0190930B01A0930C01B09381
:1002D0000D01BF91AF919F918F912F910F900FBE04
:1002E0000F901F9018951F920F920FB60F92112426
:1002F000CF92DF92EF92FF922F933F934F935F93B2
:100300006F937F938F939F93AF93BF93EF93FF93DD
:1003100080910801882309F453C08091090181115B
:100320000DC081E080930901109204011092050133
:10033000109206011092070116BC42C010920901EA
:100340008091040190910501A0910601B0910701EF
:10035000BA2FA92F982F882726B5BC01CD01620F8F
:10036000711D811D911D0F2EFAE3CF2ED12CE12C92
:10037000F12CF02DA70196010E940C0420930A0194
:1003800030930B0140930C0150930D0160910A01D1
:1003900070910B0180910C0190910D01A7019601C4
:1003A0000E942E04CA01B9010E94EA026093000172
:1003B0007093010180930201909303011092080150
:1003C000FF91EF91BF91AF919F918F917F916F912D
:1003D0005F914F913F912F91FF90EF90DF90CF90E1
:1003E0000F900FBE0F901F90189585B115B885E13D
:1003F0008A95F1F7000085B1816085B981E080932D
:10040000080185E38A95F1F7000085B115B80895D4
:10041000E9E6F0E08081816080838DB381608DBBEF
:10042000089585B5816085BD16BCEEE6F0E080815B
:100430008160808378940895809108018111FCCFB8
:100440002FEF80E792E0215080409040E1F700C01C
:1004500000000E94F501089560910A0170910B015E
:1004600080910C0190910D010E94EA0260930001BD
:100470007093010180930201909303016091000148
:1004800070910101809102019091030108950E94F1
:100490005B020C943C030E94350358F00E942E032B
:1004A00040F029F45F3F29F00C94250351110C947E
:1004B00070030C942B030E944D0368F39923B1F34E
:1004C000552391F3951B550BBB27AA27621773077A
:1004D000840738F09F5F5F4F220F331F441FAA1F0E
:1004E000A9F335D00E2E3AF0E0E832D091505040CA
:1004F000E695001CCAF72BD0FE2F29D0660F771F78
:10050000881FBB1F261737074807AB07B0E809F05D
:10051000BB0B802DBF01FF2793585F4F3AF09E3FE2
:10052000510578F00C9425030C9470035F3FE4F3BD
:10053000983ED4F3869577956795B795F7959F5F25
:10054000C9F7880F911D9695879597F90895E1E071
:10055000660F771F881FBB1F621773078407BA07D0
:1005600020F0621B730B840BBA0BEE1F88F7E0952B
:1005700008950E94550388F09F5798F0B92F992746
:10058000B751B0F0E1F0660F771F881F991F1AF07E
:10059000BA95C9F714C0B13091F00E946F03B1E071
:1005A00008950C946F03672F782F8827B85F39F070
:1005B000B93FCCF3869577956795B395D9F73EF417
:1005C00090958095709561957F4F8F4F9F4F0895BF
:1005D000E89409C097FB3EF49095809570956195DD
:1005E0007F4F8F4F9F4F9923A9F0F92F96E9BB2793
:1005F0009395F695879577956795B795F111F8CF0F
:10060000FAF4BB0F11F460FF1BC06F5F7F4F8F4F79
:100610009F4F16C0882311F096E911C0772321F06F
:100620009EE8872F762F05C0662371F096E8862F07
:1006300070E060E02AF09A95660F771F881FDAF75E
:10064000880F9695879597F9089597F99F6780E8A1
:1006500070E060E008959FEF80EC089500240A9414
:100660001616170618060906089500240A9412168D
:100670001306140605060895092E0394000C11F4C0
:10068000882352F0BB0F40F4BF2B11F460FF04C06D
:100690006F5F7F4F8F4F9F4F089557FD9058440FC6
:1006A000551F59F05F3F71F04795880F97FB991FD1
:1006B00061F09F3F79F0879508951216130614068E
:1006C000551FF2CF4695F1DF08C01616170618061B
:1006D000991FF1CF86957105610508940895E894F6
:1006E000BB2766277727CB0197F908950E94E80377
:1006F00008F48FEF08950E948E030C943C030E942F
:100700002E0338F00E94350320F0952311F00C944D
:1007100025030C942B0311240C9470030E944D03A9
:1007200070F3959FC1F3950F50E0551F629FF00144
:10073000729FBB27F00DB11D639FAA27F00DB11D5D
:10074000AA1F649F6627B00DA11D661F829F2227E6
:10075000B00DA11D621F739FB00DA11D621F839F6D
:10076000A00D611D221F749F3327A00D611D231F43
:10077000849F600D211D822F762F6A2F11249F5791
:1007800050409AF0F1F088234AF0EE0FFF1FBB1F94
:10079000661F771F881F91505040A9F79E3F510553
:1007A00080F00C9425030C9470035F3FE4F3983EB3
:1007B000D4F3869577956795B795F795E7959F5FFD
:1007C000C1F7FE2B880F911D9695879597F908958F
:1007D000990F0008550FAA0BE0E8FEEF1616170652
:1007E000E807F907C0F012161306E407F50798F0BA
:1007F000621B730B840B950B39F40A2661F0232BD3
:10080000242B252B21F408950A2609F4A140A6954E
:100810008FEF811D811D0895A1E21A2EAA1BBB1B1B
:10082000FD010DC0AA1FBB1FEE1FFF1FA217B307BC
:10083000E407F50720F0A21BB30BE40BF50B661FD2
:10084000771F881F991F1A9469F760957095809596
:1008500090959B01AC01BD01CF010895052E97FB3A
:100860001EF400940E94450457FD07D00E940C041A
:1008700007FC03D04EF40C944504509540953095F8
:1008800021953F4F4F4F5F4F0895909580957095FC
:0E08900061957F4F8F4F9F4F0895F894FFCFD3
:00000001FF
