:100000000C9434000C94EC000C9446000C944600C4
:100010000C9446000C9446000C9446000C94460048
:100020000C9446000C9446000C9446000C94460038
:100030000C9446000C9446000C9446000C94460028
:100040000C949C000C9446000C9446000C944600C2
:100050000C9446000C9446000C9446000C94460008
:100060000C9446000C94460011241FBECFEFD8E03C
:10007000DEBFCDBF21E0A0E0B1E001C01D92AA30FB
:10008000B207E1F70E9463000C94A1010C940000F8
:100090008AB11AB88AB11AB8089520E030E00FC0CA
:1000A00095B180E2892785B94FEF89E698E1415003
:1000B00080409040E1F700C000002F5F3F4F2530A7
:1000C000310574F308950E9482000E9448000E9446
:1000D0004D000E945B010E9464010E9474000E9416
:1000E0006F0180E090E00895E0E8F0E080818160B9
:1000F00080838081806A8083E1E8F0E08081856090
:100100008083089584B1816084B985B115B88AB1BE
:100110001AB88BB182608BB984B1826084B984B122
:10012000846084B984B1886184B987B1806387B9F8
:1001300084B1806284B908951F920F920FB60F9216
:1001400011242F938F939F93AF93BF9380910501B9
:100150008823C1F18091000190910101A0910201D9
:10016000B09103010196A11DB11D809300019093F0
:100170000101A0930201B0930301809100019091CD
:100180000101A0910201B0910301BA2FA92F982F6C
:10019000882726B5820F911DA11DB11D8130954381
:1001A000AC40B10578F010920501109204018FEF78
:1001B0009FEFDC018093060190930701A093080153
:1001C000B0930901BF91AF919F918F912F910F90A3
:1001D0000FBE0F901F9018951F920F920FB60F929F
:1001E00011242F933F934F935F936F937F938F933C
:1001F0009F93AF93BF93EF93FF9380910401882364
:10020000B1F18091050181110DC081E0809305015C
:10021000109200011092010110920201109203014C
:1002200016BC25C01092050180910001909101013A
:10023000A0910201B0910301BA2FA92F982F88270E
:1002400026B5BC01CD01620F711D811D911D22E0FB
:1002500031E040E050E00E947F012093060130939E
:100260000701409308015093090110920401FF9186
:10027000EF91BF91AF919F918F917F916F915F911E
:100280004F913F912F910F900FBE0F901F90189597
:1002900085B115B885E18A95F1F7000085B18160D7
:1002A00085B981E08093040185E38A95F1F7000028
:1002B00085B115B80895E9E6F0E08081816080831A
:1002C0008DB381608DBB089585B5816085BD16BCF9
:1002D000EEE6F0E0808181608083789408958091DB
:1002E00004018111FCCF2FEF80E792E02150804084
:1002F0009040E1F700C000000E944801F0CFA1E269
:100300001A2EAA1BBB1BFD010DC0AA1FBB1FEE1F8F
:10031000FF1FA217B307E407F50720F0A21BB30BDA
:10032000E40BF50B661F771F881F991F1A9469F756
:1003300060957095809590959B01AC01BD01CF01B2
:060340000895F894FFCFC0
:00000001FF
